:100000000C94AD050C94F4050C94F4050C94F405D3
:100010000C94F4050C94F4050C94F4050C94F4057C
:100020000C94F4050C94F4050C9438100C940A11FB
:100030000C9414200C94F4050C94F4050C94F40521
:100040000C94F4050C94F4050C94F4050C94F4054C
:100050000C94F4050C9488200C94F4050C94F4058D
:100060000C94F4050C94F4050C94F4050C94F4052C
:100070000C94F4050C94F4050C94F4050C94F4051C
:100080000C94F4050C94F4050C94F4050C94F4050C
:100090000C94F4050C94F4050C94F4050C94F405FC
:1000A0000C94F4050C94F4050C94F4057711991153
:1000B000871299118712DE110112871256126912E6
:1000C0004916491678167816D61614172E192E19B1
:1000D0002D172E192E182E1802192E192E1919192E
:1000E00035A131A1E3A1E7A1041607090B0A1D1BE5
:1000F00006196405141A08151C171E1F2021232237
:100100002E26242D25273012182F0C13280F0D34DE
:100110000E33C136381110372B2CC02A5829E0E392
:10012000E182E2504F5152006C63E7556D57005326
:10013000A9AAA8545800566D6E2E62595A5B5C5D90
:100140005E5F6F60618987853E3F403C41429144DC
:1001500090466B47004365450048494A4B4C3D4D2E
:100160003B4E3AE5E6E400B4041607094A0A1D1BB3
:1001700006196405141A0815B4173A3B3C3D3F3E76
:10018000454240444143304E4B2F5246284F503455
:100190005133C136384D4D372B2CC04C5835E0E328
:1001A000E182E2B0A8AAA9006C63E7556D5700533D
:1001B000A9AAA854BF00566D6E2E62595A5B5C5DA9
:1001C0005E5F6F60618987853E3F403C414291445C
:1001D00090466B47004365450048494A4B4C3D4DAE
:1001E0003B4E3AE5E6E400B46164625F686F7374A5
:1001F0005F6B62645F726563763A204552524F527C
:10020000282564290A000A002530345800616462F8
:100210005F686F73745F6B62645F726563763A20C8
:10022000004552524F523A206D65646961206B65FA
:1002300079300A004552524F523A206D6564696127
:10024000206B6579310A005D0A00256400200025D5
:1002500064007C00253032580020002530325800E0
:100260006164625F6D6F757365207261773A205BC0
:10027000000A002530313662006164625F686F7386
:10028000745F6D6F7573655F726563763A200064A5
:100290006562756720656E61626C65642E0A005345
:1002A00063616E3A20616464723A25642C20726541
:1002B00067333A253034580A004166746572206904
:1002C0006E69743A0A00466F756E643A206D656413
:1002D0006961206B6579730A006861646C65725F9F
:1002E00069643A20253032582C2069735F69736F36
:1002F0005F6C61796F75743A2025730A00536361EE
:100300006E3A20616464723A25642C20726567330A
:100310003A253034580A004265666F726520696E6E
:1003200069743A0A000A4B6579626F6172642073DE
:10033000746172742E0A004B6579626F6172642079
:10034000696E69742E0A005B445D005B435D002E9C
:100350000341004400420020006B00650079006208
:10036000006F00610072006400200063006F006E87
:100370000076006500720074006500720000000ED7
:100380000374002E006D002E006B002E0000000490
:1003900003090409027400040100A03209040000EA
:1003A000010301010009211101000122400007059C
:1003B000810308000A090401000103010200092168
:1003C00011010001224D000705820308000A0904FB
:1003D0000200010300000009211101000122360082
:1003E0000705830308000A09040300020300000054
:1003F00009211101000122220007058403200001C8
:10040000070504032000011201100100000008ED9F
:10041000FEDB0A0101010200010631FF0974A1019E
:100420000975150026FF00952075088102097615CB
:100430000026FF00952075089102C005010980A1E2
:100440000185021601002637001A81002AB70075BF
:100450001095018100C0050C0901A1018503160159
:1004600000269C021A01002A9C0275109501810049
:10047000C005010902A1010901A10005091901290D
:10048000051500250195057501810295017503810A
:10049000010501093009311581257F950275088113
:1004A0000609381581257F950175088106050C0A16
:1004B00038021581257F950175088106C0C00501A8
:1004C0000906A101050719E029E71500250195088E
:1004D0007501810295017508810105081901290539
:1004E00095057501910295017503910105071900A4
:1004F00029FF150026FF00950675088100C0636F6F
:100500006E73756D65723A20253034580A00737920
:100510007374656D3A20253034580A000A0025307E
:10052000325820006B6579626F6172643A20004C2A
:1005300045443A20253032580A00253032583A20B6
:100540002530386225730A00722F63203031323330
:10055000343536370A00290A002575002F00257525
:10056000005D28002564002000256400200025642B
:100570000020002564007C0025303258006D6F7526
:1005800073656B6579205B62746E7C782079207668
:1005900020685D287265702F61636C293A205B00CA
:1005A0006D6B5F776865656C5F74696D655F746FAF
:1005B0005F6D6178203D2025640A006D6B5F776870
:1005C00065656C5F6D61785F7370656564203D2063
:1005D00025640A006D6B5F74696D655F746F5F6D94
:1005E0006178203D2025640A006D6B5F6D61785F46
:1005F0007370656564203D2025640A006D6B5F693A
:100600006E74657276616C203D2025640A006D6B06
:100610005F64656C6179203D2025640A006D6B5F25
:10062000776865656C5F74696D655F746F5F6D6138
:1006300078203D2025640A006D6B5F776865656CE6
:100640005F6D61785F7370656564203D2025640A85
:10065000006D6B5F74696D655F746F5F6D617820AD
:100660003D2025640A006D6B5F6D61785F73706576
:100670006564203D2025640A006D6B5F696E7465BA
:100680007276616C203D2025640A006D6B5F6465A5
:100690006C6179203D2025640A000A00257500362A
:1006A0003A20776865656C5F74696D655F746F5F2C
:1006B0006D61783A20000A00257500353A20776888
:1006C00065656C5F6D61785F73706565643A200085
:1006D0000A00257500343A2074696D655F746F5F98
:1006E0006D61783A20000A00257500333A206D616B
:1006F000785F73706565643A20000A0025750032E2
:100700003A20696E74657276616C286D73293A209F
:10071000000A00257500313A2064656C6179282A49
:1007200031306D73293A20000A092D2056616C750D
:100730006573202D0A004D3E004D25643E20003F8C
:10074000007365742064656661756C740A00433ECD
:10075000200077686572652064656C74613A206377
:100760007572736F723D25642C20776865656C3DEA
:1007700025640A53656520687474703A2F2F656E7E
:100780002E77696B6970656469612E6F72672F7768
:10079000696B692F4D6F7573655F6B6579730A00BF
:1007A0000A092D204D6F7573656B6579202D0A45FB
:1007B00053432F713A09717569740A313A096465B6
:1007C0006C6179282A31306D73290A323A09696ED1
:1007D00074657276616C286D73290A333A096D610C
:1007E000785F73706565640A343A0974696D655F92
:1007F000746F5F6D61780A353A09776865656C5F7B
:100800006D61785F73706565640A363A097768656B
:10081000656C5F74696D655F746F5F6D61780A0AFE
:10082000703A097072696E742076616C7565730A2E
:10083000643A097365742064656661756C74730A43
:1008400075703A092B310A646F776E3A092D310AB7
:10085000706775703A092B31300A7067646F776E74
:100860003A092D31300A0A7370656564203D2064B1
:10087000656C7461202A206D61785F7370656564B2
:10088000202A2028726570656174202F2074696D9C
:10089000655F746F5F6D6178290A003F004D3E20EF
:1008A00000433E20004C25640A000A092D20436FB6
:1008B0006E736F6C65202D0A4553432F713A097191
:1008C0007569740A6D3A096D6F7573656B65790AA0
:1008D000000A092D204D61676963202D0A643A09D9
:1008E00064656275670A783A096465627567206DA8
:1008F00061747269780A6B3A096465627567206B86
:100900006579626F6172640A6D3A09646562756740
:10091000206D6F7573650A763A0976657273696F33
:100920006E0A733A097374617475730A633A0963E2
:100930006F6E736F6C65206D6F64650A302D343A8D
:10094000096C61796572302D34284631302D46347A
:10095000290A506175733A09626F6F746C6F616434
:1009600065720A003F0074696D65725F726561644B
:10097000333228293A202530346C580A006B6579C7
:10098000626F6172645F69646C653A2025580A0081
:100990006B6579626F6172645F70726F746F636FA1
:1009A0006C3A2025580A00686F73745F6B65796232
:1009B0006F6172645F6C65647328293A2025580A58
:1009C000000A092D20537461747573202D0A0047A5
:1009D00043433A20342E392E32204156522D4C4971
:1009E00042433A20312E382E3073766E20415652D3
:1009F0005F415243483A20617672350A004F5054A5
:100A0000494F4E533A204C554641204D4F55534582
:100A10004B45592045585452414B455920434F4E60
:100A2000534F4C4520434F4D4D414E4420343039B7
:100A3000360A004255494C443A20396561313362E7
:100A400035632D6469727479202831303A31383A2F
:100A50003039204170722020362032303139290A55
:100A6000005649443A2030784645454428742E6D56
:100A70002E6B2E29205049443A2030783041444290
:100A800028414442206B6579626F61726420636F14
:100A90006E76657274657229205645523A20307818
:100AA000303130310A00444553433A20636F6E764B
:100AB00065727420414442206B6579626F61726493
:100AC00020746F205553420A000A092D2056657282
:100AD00073696F6E202D0A000A6D6F7573653A2079
:100AE0006F66660A000A6D6F7573653A206F6E0A4D
:100AF000000A6B6579626F6172643A206F66660AFC
:100B0000000A6B6579626F6172643A206F6E0A0049
:100B10000A6D61747269783A206F66660A000A6D20
:100B200061747269783A206F6E0A000A64656275B2
:100B3000673A206F6E0A000A64656275673A206F33
:100B400066660A000A0A626F6F746C6F6164657290
:100B50002E2E2E2000433E20000011241FBECFEF7A
:100B6000DAE0DEBFCDBF04B603FE27C080916C0380
:100B700090916D03A0916E03B0916F038730904BFD
:100B8000A740B04BD1F410926C0310926D031092F9
:100B90006E0310926F0314BE84B7877F84BF0FB6B5
:100BA000F894A8958091600088618093600010920D
:100BB00060000FBEE0E0F8E3099511E0A0E0B1E0CD
:100BC000EAEFF2E502C005900D92A034B107D9F723
:100BD00023E0A0E4B1E001C01D92AC36B207E1F71A
:100BE0000E94F40C0C947B290C940000FF93EF936B
:100BF000E0914001F0914101309709F00995EF91A2
:100C0000FF910895FC018591803011F0EFDFFBCF5B
:100C10000895FF27E0E230E247FF0CC0419597FFBF
:100C200009C0EDE26095709580959095611D711DEC
:100C3000811D911D27FF02C0219530E350E2AA27B4
:100C4000660F771F881F991FAA1FA41710F0A41BF7
:100C500063955A95A9F7AA3008F0A95FA05DAF93F4
:100C6000F395611571058105910541F7ED3211F498
:100C7000EF93F395F21718F43F93F395FBCF8F9111
:100C8000B5DFFA95E1F70895E991F9918591803002
:100C900021F0853219F0AADFF9CF089520E0E89419
:100CA00055915532C1F3503311F4689455915A332C
:100CB00048F4505390F3220F022E220F220F200DE2
:100CC000250FF4CF0EF4219589919991533619F39C
:100CD000533729F1533559F1BC0188279927E894F6
:100CE0005C3621F48991999168945591543639F480
:100CF00046EF7EF077FF0DC08FEF9FEF0AC05537AC
:100D00004AE039F0583540E121F0523642E009F02E
:100D10000895FF93EF937DDFEF91FF91B7CFFF939E
:100D2000EF93FC0181918030B9F360DFFBCFFF933B
:100D3000EF9368DFF1CFDF93CF93CDB7DEB7259682
:100D4000A3DFCF91DF910895282F2770E82FE69534
:100D5000E695E695EF70F0E0E45BFE4F87FF0AC092
:100D600081E090E001C0880F2A95EAF78095908194
:100D7000892308C081E090E001C0880F2A95EAF736
:100D80009081892B808308950F931F93CF93DF93D6
:100D9000569A5E9A0E94DF092FEF87EA91E621506A
:100DA00080409040E1F700C0000087E193E09F930E
:100DB0008F930E949B060F900F90C1E0D0E00DEF43
:100DC00012E063E08C2F0E94E309009771F09F937B
:100DD0008F93DF93CF931F930F930E949B060F90E7
:100DE0000F900F900F900F900F909FEF29EF80E0E2
:100DF000915020408040E1F700C000002196C031B2
:100E0000D105F9F663E082E00E94E3099927813178
:100E1000910539F194F48730910519F13CF49C0166
:100E2000245031092230310500F51BC0893091056D
:100E3000C1F08D309105C9F414C08D31910589F050
:100E40003CF48431910569F08931910571F409C050
:100E5000843C910531F0873C910519F0813C910566
:100E600021F421E020935C0102C010925C012091EA
:100E70005C01211103C02EE131E002C02AE131E022
:100E80003F932F939F938F9389ED92E09F938F933E
:100E90000E949B0663E087E00E94E30991E00F90C7
:100EA0000F900F900F900F900F90823009F090E00C
:100EB00090935D01992341F086EC92E09F938F938C
:100EC0000E949B060F900F9023E042E063E082E0D7
:100ED0000E94630A89EB92E09F938F930E949B0686
:100EE0000F900F90C1E0D0E00FE912E063E08C2F8B
:100EF0000E94E309009771F09F938F93DF93CF9344
:100F00001F930F930E949B060F900F900F900F90CE
:100F10000F900F908FEF99EF20E08150904020408C
:100F2000E1F700C000002196C031D105F9F6ECE4EC
:100F3000F1E080E18E0F11928E13FDCF0E94A4127A
:100F40000E94860980914E03816080934E038FE852
:100F500092E00E940206569A5E98DF91CF911F910F
:100F60000F910895CF93DF938091450190914601B1
:100F70000E945E200C9708F4D2C00E9446209093F5
:100F80004601809345010E945F0AEC01009711F42D
:100F900081E0C3C097FD05C08091470181608093C7
:100FA0004701D7FF05C0809147018E7F809347019D
:100FB0002D2F33272F733327BE016F737727C6FF7B
:100FC00002C060547109D6FF02C02054310940911B
:100FD0004401042E000C550B649FC001659F900DC9
:100FE000749F900D112481386FEF960714F481E8F7
:100FF0009FEF91958195910981386FEF960714F4D1
:1010000081E89FEF819580934801249FC001259F2F
:10101000900D349F900D112481382FEF920714F416
:1010200081E89FEF91958195910981386FEF96073F
:1010300014F481E89FEF81958093490180914E03DC
:1010400083FF60C089E792E00E940206DF93CF939E
:1010500083E792E09F938F930E949B0681E792E043
:101060000E94020680E692E00E94020680914401FE
:10107000282F082E000C330B3F938F938BE592E0C3
:101080009F938F930E949B0689E592E00E9402063F
:10109000809147011F928F9384E592E09F938F93F5
:1010A0000E949B0682E592E00E9402068091480120
:1010B000282F082E000C330B3F938F938FE492E080
:1010C0009F938F930E949B068DE492E00E940206FC
:1010D00080914901282F082E000C330B3F938F93EA
:1010E0008AE492E09F938F930E949B0687E492E0AC
:1010F0000E9402068DB79EB744960FB6F8949EBF25
:101100000FBE8DBF87E491E00E94F91280914401E7
:1011100091E088300CF090E0890F80934401DF91DA
:10112000CF9108951F93CF93DF93C0910001D09189
:1011300001018FEF9FEF9093010180930001CF3F5A
:101140008FEFD80709F074C080914201909143015C
:101150000E945E200C9710F480E0CEC00E944620D2
:10116000909343018093420182E00E945C0AEC016B
:10117000892B09F05DC080915D01882309F458C076
:1011800087E00E945C0A009709F452C09C012F7707
:10119000332722303105A1F048F42115310569F0DB
:1011A0002130310599F480788A641AC023303105E2
:1011B00051F02F373105A1F009C08078826410C04A
:1011C000807889640DC0807888640AC084E392E0E6
:1011D0009F938F930E949B060F900F9081E18CC08C
:1011E000292F33272F7733272130310579F050F01D
:1011F0002230310579F02330310581F4EC01D078CB
:10120000D86416C0EC01D078D26412C0EC01D0785A
:10121000DA640EC0EC01D078D9640AC081E292E0B1
:101220009F938F930E949B060F900F9080E164C064
:1012300080914E0381FF18C0209709F48DCF8DE077
:1012400092E00E940206DF93CF9388E092E09F93A2
:101250008F930E949B0686E092E00E9402060F9008
:101260000F900F900F9003C0209709F475CFCF37E0
:101270008FE7D80711F48FE705C0CF3F8FEFD8076E
:1012800021F48FEF0E94A40636C02D2F3327822F22
:101290001C2F2F3F310581F4DF93CF9388EE91E02F
:1012A0009F938F930E949B060E94C4060F900F90FD
:1012B0000F900F908C2F20C090915C01992381F0AA
:1012C000A9014F7755274233510521F42078822F09
:1012D0008A6006C04A30510519F42078822F826353
:1012E0000E94A4061F3F39F0DC2FCC27CF6FD0938C
:1012F0000101C093000181E0DF91CF911F9108951A
:10130000E82FF0E0E45BFE4F80810895682F609540
:1013100082E00C949D0A509A83E091E00197F1F7E6
:1013200000C0000050989AEB9A95F1F700C008951C
:10133000509A8AEB8A95F1F700C0509883E091E0CB
:101340000197F1F700C000000895EF92FF920F930C
:101350001F93CF93DF93C0E0D0E090E8E92EF12C0B
:10136000082F10E0C7010C2E02C0959587950A94AE
:10137000E2F780239123892B19F00E94980902C07B
:101380000E948B092196C830D10561F7DF91CF917A
:101390001F910F91FF90EF900895489B06C023E0A6
:1013A0002A95F1F700000197C1F70895489906C002
:1013B00023E02A95F1F700000197C1F708955898A6
:1013C000509808950895CF92DF92EF92FF920F9375
:1013D0001F93CF93DF931F92CDB7DEB7182FF894EA
:1013E000509A83EF9BE00197F1F700C000006983FA
:1013F0000E94980969816C6020E1129FC00111244C
:10140000862B0E94A5090E948B0984EF91E00E941F
:10141000D609892B21F4789482EE9FEF43C084EFA4
:1014200091E00E94CD09009711F478943BC011E13E
:10143000C12CD12C02E882E890E00E94D6097C0100
:10144000882351F199270E94CD09882329F1CC0CDA
:10145000DD1C902F9E19E81A9E1518F46894C0F8A8
:1014600006C0113121F478948CEE9FEF1BC011500F
:1014700011F78FE591E00E94D609892B21F4789429
:101480008BEE9FEF0FC08BE590E00E94CD09892B7A
:10149000B1F77894C60106C07894812F90E09195B9
:1014A000819591090F90DF91CF911F910F91FF903E
:1014B000EF90DF90CF90089560E00C94E30960E036
:1014C00083E00C94E3091F93CF93DF9300D01F9226
:1014D000CDB7DEB7182FF894509A83EF9BE00197B1
:1014E000F1F700C000002B834A8369830E949809AA
:1014F0006981686030E1139FC0011124862B0E942E
:10150000A5090E948B098FE193E00197F1F700C0D4
:1015100000000E9498094A81842F0E94A5092B810E
:10152000822F0E94A5090E948B0978940F900F903A
:101530000F90DF91CF911F910895262F277040E0E3
:1015400062E00C94630A80916A020895CF93DF935E
:1015500000D01F92CDB7DEB79C0180916303843029
:1015600019F593E099833B832A839093E9008FEFE9
:101570009091E800815095FD06C095ED9A95F1F7A0
:1015800000008111F5CF8091E80085FF0DC040E09B
:1015900050E063E070E0CE0101960E94280E809139
:1015A000E8008E778093E8000F900F900F90DF9106
:1015B000CF910895CF93DF9300D01F92CDB7DEB7C0
:1015C00020916303243031F522E02983805891096A
:1015D0009B838A8383E08093E9008FEF9091E800FA
:1015E000815095FD06C095ED9A95F1F700008111A7
:1015F000F5CF8091E80085FF0DC040E050E063E04A
:1016000070E0CE0101960E94280E8091E8008E774E
:101610008093E8000F900F900F90DF91CF91089585
:10162000209163032430F1F422E02093E9002FEFAE
:101630003091E800215035FD06C035ED3A95F1F7BF
:1016400000002111F5CF2091E80025FF0BC040E0FC
:1016500050E065E070E00E94280E8091E8008E77EF
:101660008093E8000895CF93DF93209163032430A3
:1016700049F521E02093E90021E8215059F030910B
:10168000E80035FD07C0EFE3F1E03197F1F700C066
:101690000000F3CF2091E80025FF14C0EC0140E0EA
:1016A00050E068E070E00E94280E8091E8008E779C
:1016B0008093E80088E0FE01A2E6B2E001900D927E
:1016C0008A95E1F7DF91CF910895CF93C0916001A2
:1016D000C1110BC00E945220643C794081059105E4
:1016E00020F081E080936001C1E08C2FCF910895BC
:1016F000CF93C82F0E94650B882309F448C00FB60A
:1017000007FE45C080916303843009F040C090918A
:10171000E9009F702091EC00822F817020FD80E80D
:10172000982B84E08093E9008091EB0080FF2CC02F
:101730008091EE0087FF28C020910501809104016F
:10174000821709F449C08091E80085FF1DC0E0912F
:101750000201F0910301E20FF11D80812F5F3091B2
:1017600006012323209305018093F1008091E80076
:1017700085FDE2CF8091E80080FFDECF2091E80078
:101780002E772093E800D8CF9F709093E9002091A6
:10179000040130E0B9016F5F7F4F90910601492F3E
:1017A00050E0462357236091050170E04617570724
:1017B00089F08091020190910301FC01E20FF31F77
:1017C000C083809104018F5F9091060189238093EB
:1017D00004010BC08FEF0AC08091E80085FFD4CFD1
:1017E000C093F1009F709093E90080E0CF9108953D
:1017F0008BE493E00E94020680916203811109C08C
:101800000E94BD0F0E941A108091E20084608093B4
:10181000E200089587E493E00E94020610926203BA
:1018200008950895089542E061EC81E00E94370F29
:1018300042E061EC82E00E94370F42E061EC83E01D
:101840000E94370F42E261EC84E00C94370F8091E4
:101850006503833009F453C030F4813071F0823075
:1018600009F48CC008958A3009F478C08B3009F4EB
:101870005EC0893009F09AC020C080916403813A2B
:1018800009F094C08091E800877F8093E800809100
:10189000680390916903892B21F468E082E692E065
:1018A00003C060E080E090E070E00E94730E8091E1
:1018B000E8008B778093E80008958091640381327B
:1018C00009F074C08091680390916903892B09F035
:1018D0006DC08091E800877F8093E8008091E800E8
:1018E00082FD05C0809163038111F8CF5FC08091B4
:1018F000F10080936A028091E8008B7753C0809159
:101900006403813A09F052C08091680390916903A1
:10191000892B09F04BC08091E800877F8093E80015
:101920008091E80080FFFCCF8091110136C080914A
:1019300064038132D9F58091680390916903892B02
:10194000A9F58091E800877F8093E8000E946C0FE2
:1019500080916603809311010C9450198091640367
:10196000813221F58091E800877F8093E8000E9412
:101970006C0F8091670380936B02089580916403DC
:10198000813AA1F48091E800877F8093E8008091FC
:10199000E80080FFFCCF80916B028093F100809182
:1019A000E8008E778093E8000C946C0F08950895FA
:1019B000089580916A028093610110926A0280E02A
:1019C0000E9486090E940F140C9450190C94D90C93
:1019D0000E94D31F80916103882329F00E94FC1F7D
:1019E00081110C94120E0895CF9384B7877F84BF22
:1019F0000FB6F894A895809160008861809360008C
:101A0000109260000FBE90E080E80FB6F8948093CB
:101A10006100909361000FBE88E79BE00E94A41FC5
:101A200087E091E00E949F1287E393E00E94020604
:101A30000E94D70C0E9460130E94BD0F0E941A10D2
:101A40008091E20084608093E20078940E946213A7
:101A500080916303843019F00E949208F9CF0E94AC
:101A6000D80C85E293E00E940206C4E080916303F3
:101A7000853019F40E94E80CF9CF0E946813809118
:101A8000E4009091E50020915E0130915F012817FC
:101A9000390761F38091E4009091E50090935F0134
:101AA00080935E010E94650B882301F3809163039C
:101AB0008430E1F68091E9008F702091EC00922F44
:101AC000917020FD90E8892BC093E9009091EB0084
:101AD00090FF43C09091EE0097FF3FC090910501A9
:101AE00020910401291709F12091E80025FF1DC06C
:101AF000E0910201F0910301E90FF11D30819F5F38
:101B0000209106019223909305013093F10090916A
:101B1000E80095FDE3CF9091E80090FFDFCF909132
:101B2000E8009E779093E800D9CF9091F300209140
:101B3000F20030E0392B232B81F09091E80090FFE8
:101B40000CC09091E80095FF03C01092F100F9CF0E
:101B50009091E8009E779093E8008F708093E90061
:101B600085CF0E9410208091610180936A020895C0
:101B70000C94B10D292F332723303105C9F064F4BB
:101B80002130310581F02230310509F043C084E76E
:101B900090E023E933E042C021323105F1F02232F6
:101BA000310541F137C082E190E027E034E036C0F2
:101BB00099278130910541F08230910541F0892BC0
:101BC00049F5EFE8F3E005C0EFE7F3E002C0EFE42A
:101BD000F3E0849190E09F0121C06430D8F4E62FB7
:101BE000F0E0EE0FFF1FE35DFE4F2081318189E0C1
:101BF00090E014C0643070F470E0FB01EE0FFF1F42
:101C0000EB5DFE4F20813181FB01EF5DFE4F808156
:101C100090E004C080E090E020E030E0FA01318301
:101C20002083089580E189BD82E189BD09B400FE69
:101C3000FDCF8091D8008F7D8093D8008091E00007
:101C400082608093E0008091E00081FDFCCF0895E8
:101C5000CF92DF92EF92FF920F931F93CF93DF9378
:101C6000EC018B016A010E948B0F811133C0C114FA
:101C7000D10439F0F60180819181081B190BC80F3E
:101C8000D91FE12CF12C0115110519F18091E80003
:101C900085FD16C08091E8008E778093E800C1141E
:101CA000D10449F0F60180819181E80EF91EF1829C
:101CB000E08285E00FC00E948B0F882321F30AC0C9
:101CC00089918093F10001501109FFEFEF1AFF0A8B
:101CD000DACF80E0DF91CF911F910F91FF90EF90CD
:101CE000DF90CF90089520916A0330916B032617FF
:101CF000370748F06115710539F42091E8002E7717
:101D00002093E80001C0B90140E061157105A9F117
:101D100020916303222309F443C0253009F442C013
:101D20002091E80023FD40C02091E80022FD32C050
:101D30002091E80020FFE9CF4091F3002091F200CC
:101D400030E0342BFC01CF016115710559F02830CA
:101D5000310540F481918093F100615071092F5F4A
:101D60003F4FF1CF41E02830310509F040E02091AC
:101D7000E8002E772093E800C8CF4111C9CF0AC0F0
:101D800080916303882361F0853061F08091E800E1
:101D900083FD0AC08091E80082FFF2CF80E00895C1
:101DA00082E0089583E0089581E0089520916A0318
:101DB00030916B032617370748F06115710539F428
:101DC0002091E8002E772093E80001C0B901FC01C2
:101DD00020E06115710591F180916303882309F476
:101DE00040C0853009F43FC08091E80083FD3DC0CC
:101DF0008091E80082FD2FC08091E80080FFE9CF4C
:101E00002091F3008091F20090E0922B6115710512
:101E100059F08830910540F424912093F1003196D7
:101E2000615071090196F2CF21E0089709F020E096
:101E30008091E8008E778093E800CBCF2111CCCF42
:101E40000AC080916303882361F0853061F080913E
:101E5000E80083FD0AC08091E80082FFF2CF80E0B5
:101E6000089582E0089583E0089581E00895982F11
:101E7000973058F59093E900981739F07091EC007D
:101E80002091ED005091F00003C0242F762F50E0F8
:101E900021FF19C03091EB003E7F3093EB00309171
:101EA000ED003D7F3093ED003091EB0031603093D9
:101EB000EB007093EC002093ED005093F000209124
:101EC000EE0027FF07C09F5FD3CF8F708093E9009C
:101ED00081E0089580E008958091640387FF11C038
:101EE0008091E80082FD05C0809163038111F8CFE5
:101EF00011C08091E8008B770BC080916303882329
:101F000049F08091E80080FFF8CF8091E8008E775B
:101F10008093E80008952091E4003091E50095E673
:101F20004091EC00842F817040FF22C08091E80036
:101F300080FD1CC080916303882391F0853091F06F
:101F40008091EB0085FD10C04091E4005091E500C8
:101F50004217530729F39A01915011F784E008952D
:101F600082E0089583E0089581E0089580E0089577
:101F70004091E80042FFDECF08950E942B100E949E
:101F80003310E0EEF0E0808181608083E8EDF0E0E6
:101F900080818F77808319BCA7EDB0E08C918E7F14
:101FA0008C9380818F7E80831092620308950F93BB
:101FB0001F93CF93DF930E942B100E943310C8ED24
:101FC000D0E088818F778883888180688883888142
:101FD0008F7D888319BC1092630310925F03109267
:101FE00061031092600300EE10E0F80180818B7FA6
:101FF000808388818160888342E060E080E00E9485
:10200000370FE1EEF0E080818E7F8083E2EEF0E03A
:10201000808181608083808188608083F8018081F5
:102020008E7F8083888180618883DF91CF911F912B
:102030000F910895E8EDF0E080818F7E8083E7EDD9
:10204000F0E080818160808384E082BF81E08093C2
:1020500062030C94D70FE8EDF0E080818E7F8083DF
:102060001092E20008951092DA001092E1000895B3
:102070001F920F920FB60F9211242F933F934F93FD
:102080005F936F937F938F939F93AF93BF93EF93E0
:10209000FF938091E10082FF0BC08091E20082FFFC
:1020A00007C08091E1008B7F8093E1000E94120CB9
:1020B0008091DA0080FF1FC08091D80080FF1BC094
:1020C0008091DA008E7F8093DA008091D90080FFC2
:1020D0000DC080E189BD82E189BD09B400FEFDCF5C
:1020E00081E0809363030E94F80B05C019BC109235
:1020F00063030E940A0C8091E10080FF19C0809167
:10210000E20080FF15C08091E2008E7F8093E200A4
:102110008091E20080618093E2008091D80080622B
:102120008093D80019BC85E0809363030E94E60C7D
:102130008091E10084FF30C08091E20084FF2CC0D8
:1021400080E189BD82E189BD09B400FEFDCF8091A7
:10215000D8008F7D8093D8008091E1008F7E80939E
:10216000E1008091E2008F7E8093E2008091E200A6
:1021700081608093E20080915F03882311F084E006
:1021800007C08091E30087FD02C081E001C083E0C9
:10219000809363030E94B80D8091E10083FF29C002
:1021A0008091E20083FF25C08091E100877F8093CA
:1021B000E10082E08093630310925F038091E1006D
:1021C0008E7F8093E1008091E2008E7F8093E20019
:1021D0008091E20080618093E20042E060E080E074
:1021E0000E94370F8091F00088608093F0000E9479
:1021F000110CFF91EF91BF91AF919F918F917F91C2
:102200006F915F914F913F912F910F900FBE0F9063
:102210001F9018951F920F920FB60F9211242F93B3
:102220003F934F935F936F937F938F939F93AF935E
:10223000BF93CF93DF93EF93FF93C091E900CF70EB
:102240008091EC00D82FD17080FDD0E81092E90089
:102250008091F000877F8093F00078940E944E1167
:102260001092E9008091F00088608093F000CD2BFF
:10227000CF70C093E900FF91EF91DF91CF91BF91B3
:10228000AF919F918F917F916F915F914F913F910E
:102290002F910F900FBE0F901F9018951F93CF9303
:1022A000DF93CDB7DEB7AA970FB6F894DEBF0FBEA7
:1022B000CDBFE4E6F3E088E08E0F9091F1009193BA
:1022C0008E13FBCF0E94270C8091E80083FF1FC173
:1022D0008091640390916503492F50E04A30510585
:1022E00008F015C1FA01EA5AFF4F0C9461298038B1
:1022F00081F0823809F00BC1809168038F70809360
:10230000E9008091EB0085FB882780F91092E900B5
:1023100006C0809160039091610391118260909159
:10232000E800977F9093E8008093F1001092F1000D
:10233000C8C0282F2D7F09F0EAC0882319F0823009
:1023400061F0E5C080916603813009F0E0C0933010
:1023500009F080E0809361032BC0809166038111B6
:1023600027C0809168038F7009F4D1C08093E90081
:102370002091EB0020FF1CC0933021F48091EB00F2
:10238000806214C09091EB0090619093EB0021E08B
:1023900030E0A90102C0440F551F8A95E2F740932F
:1023A000EA001092EA008091EB0088608093EB00D5
:1023B0001092E9008091E800877F86C08111A7C054
:1023C000109166031F778091E3008078812B8093C2
:1023D000E3008091E800877F8093E8000E946C0F03
:1023E0008091E80080FFFCCF8091E30080688093BB
:1023F000E300111102C082E001C083E08093630317
:1024000086C08058823008F082C080916603909127
:1024100067038C3D53E0950779F583E08A838AE270
:1024200089834FB7F894DE01139620E03EE051E235
:10243000E32FF0E050935700E49120FF03C0E295B2
:10244000EF703F5FEF708E2F90E0EA3010F0C7968C
:1024500001C0C0968D939D932F5F243149F74FBFE4
:102460008091E800877F8093E8006AE270E0CE0107
:1024700001960E94730E14C0AE014F5F5F4F6091D2
:1024800068030E94BA0DBC01892B09F440C09091E9
:10249000E800977F9093E80089819A810E94D60E88
:1024A0008091E8008B778093E80031C0803879F51F
:1024B0008091E800877F8093E80080915F0380939C
:1024C000F1008091E8008E778093E8000E946C0F05
:1024D0001EC081111CC0909166039230C0F480919F
:1024E000E800877F8093E80090935F030E946C0F61
:1024F00080915F03811106C08091E30087FD02C0D7
:1025000081E001C084E0809363030E94130C8091FA
:10251000E80083FF0AC08091E800877F8093E8008D
:102520008091EB0080628093EB00AA960FB6F8943E
:10253000DEBF0FBECDBFDF91CF911F910895909365
:102540007102809370020895E0917002F09171021F
:10255000309721F00190F081E02D099480E00895FA
:10256000EF92FF920F931F93CF93DF93E09170024E
:10257000F09171023097B1F18C010280F381E02D6E
:10258000099580914E0382FF2DC080FF04C084E234
:1025900095E00E940206E80118E08EE1E82E85E051
:1025A000F82E80914E0380FF0BC088811F928F937D
:1025B000FF92EF920E949B060F900F900F900F904A
:1025C000115021961111EDCF80914E0380FF0AC06A
:1025D0008CE195E0DF91CF911F910F91FF90EF90EB
:1025E0000C940206DF91CF911F910F91FF90EF9015
:1025F0000895E0917002F0917102309721F004800B
:10260000F581E02D09940895CF93DF93EC0180913B
:102610006E0290916F02C817D90709F1D0936F022B
:10262000C0936E02E0917002F09171023097B9F0A0
:102630000680F781E02DCE01099580914E0382FF3F
:102640000EC080FF0CC0DF93CF938EE095E09F9388
:102650008F930E949B060F900F900F900F90DF9129
:10266000CF910895CF93DF93EC0180916C0290910C
:102670006D02C817D90709F1D0936D02C0936C029F
:10268000E0917002F09171023097B9F00084F18509
:10269000E02DCE01099580914E0382FF0EC080FF90
:1026A0000CC0DF93CF938EEF94E09F938F930E94A3
:1026B0009B060F900F900F900F90DF91CF91089590
:1026C0000C9410140E943D200E94C4060C94E20950
:1026D000BF92CF92DF92EF92FF920F931F93CF930F
:1026E000DF9300D000D01F92CDB7DEB70E949208D2
:1026F00003E712E0F12C8F2D0E948009B82EF8011B
:10270000C080C82639F4F3940F5F1F4FF0E1FF1229
:10271000F2CF30C080914E0381FD0E942C14D12C49
:10272000EE24E3948E2D8C21F9F0D982FA8281E097
:102730009E2D9B2109F480E08B830E9446208160BE
:10274000782F9D838C8349815A816B818D810E9472
:10275000621449815A816B817C818D810E94C01FE6
:10276000F80190819E259083D394EE0CF8E0DF125F
:10277000D9CFC9CF8FEF89838A831B820E944620DD
:102780008160782F9D838C8349815A816B818D81F3
:102790000E9462140E94BF1F0E949F230E94B207E2
:1027A000109172020E94A412181741F10E94A41203
:1027B0008093720290914E0392FF0EC090FF0CC066
:1027C0001F928F938FE295E09F938F930E949B06B9
:1027D0000F900F900F900F90809172020F900F90BA
:1027E0000F900F900F90DF91CF911F910F91FF905D
:1027F000EF90DF90CF90BF900C94D11F0F900F906F
:102800000F900F900F90DF91CF911F910F91FF903C
:10281000EF90DF90CF90BF9008950C9486090895B3
:102820000895CF93DF931F92CDB7DEB769830E94DF
:10283000800990E021E030E0698102C0220F331F5F
:102840006A95E2F72823392381E0232B09F480E0FD
:102850000F90DF91CF910895EF92FF920F931F9306
:10286000CF93DF9388E495E00E940206C0E0D0E0B9
:1028700080E2E82E81E0F82E0AE315E08C2F0E941A
:1028800080090E94A91FFF92EF921F928F93DF93FE
:10289000CF931F930F930E949B0621968DB79EB7EF
:1028A00008960FB6F8949EBF0FBE8DBFC031D105FC
:1028B00029F7DF91CF911F910F91FF90EF9008952D
:1028C00008950895CF93DF93CDB7DEB72B970FB65A
:1028D000F894DEBF0FBECDBF942F4F83252F5887AE
:1028E00069877A878B874A855B85452B21F02F3F47
:1028F00009F59F3FF9F4DE01119686E0FD01119282
:102900008A95E9F785E0FE01379601900D928A9548
:10291000E1F749815A816B817C818D819E810E9482
:102920002D1C2B960FB6F894DEBF0FBECDBFDF91E6
:10293000CF9108954F81588569857A858B850E944E
:10294000C01FD9CFCF93882309F4E8C0C82F82389D
:10295000A1F40E94A41281FDE1C089E30E94051F39
:102960000E947E1F2FEF81EE94E021508040904026
:10297000E1F700C0000089E315C08338C1F40E946C
:10298000A41280FDCBC083E50E94051F0E947E1F1C
:102990002FEF81EE94E0215080409040E1F700C09D
:1029A000000083E50E94221FCF910C947E1F843883
:1029B000A1F40E94A41282FDB1C087E40E94051F09
:1029C0000E947E1F2FEF81EE94E0215080409040C6
:1029D000E1F700C0000087E4E5CF8CEF8C0F813A6F
:1029E00048F48C2F0E94C926811198C08C2F0E9418
:1029F000051FDACF80E28C0F883048F4C77081E081
:102A000001C0880FCA95EAF70E94441FCDCF8BE51D
:102A10008C0F833078F4C53A29F0C63A31F083E858
:102A200090E005C081E890E002C082E890E0CF919C
:102A30000C94041388E58C0F853108F06FC0C83AF8
:102A400061F1C93A69F1CA3A71F1CB3A79F1CC3AFC
:102A500081F1CD3A89F1CE3A91F1CF3A99F1C13B6A
:102A6000A1F1C03BA9F1C23BB1F1C33BB9F1C43BF9
:102A7000C1F1C53BC9F1C63BD1F1C73BD9F1C83B58
:102A8000E1F1C93BE9F1CA3BF1F1CB3BF9F1CC3BB8
:102A900009F43FC080E090E03EC082EE90E03BC091
:102AA00089EE90E038C08AEE90E035C085EB90E08A
:102AB00032C086EB90E02FC083EB90E02CC084EB1B
:102AC00090E029C087EB90E026C08CEC90E023C01A
:102AD0008DEC90E020C083E891E01DC08AE891E091
:102AE0001AC082E991E017C084E991E014C081E244
:102AF00092E011C083E292E00EC084E292E00BC04B
:102B000085E292E008C086E292E005C087E292E0AA
:102B100002C08AE292E0CF910C943213CF910895D3
:102B2000882309F466C08238A1F40E94A41281FFB0
:102B300060C089E30E94051F0E947E1F2FEF81EE77
:102B400094E0215080409040E1F700C0000089E30C
:102B500015C08338B9F40E94A41280FF4AC083E5EF
:102B60000E94051F0E947E1F2FEF81EE94E02150EE
:102B700080409040E1F700C0000083E50E94221FE2
:102B80000C947E1F8438A1F40E94A41282FF31C0ED
:102B900087E40E94051F0E947E1F2FEF81EE94E0C4
:102BA000215080409040E1F700C0000087E4E6CF6C
:102BB0009CEF980F913A10F390E2980F983050F4F0
:102BC000877091E001C0990F8A95EAF7892F0E94DA
:102BD0004A1FD6CF9BE5980F933020F480E090E019
:102BE0000C940413885A853120F480E090E00C9412
:102BF00032130895882321F00E94441F0C947E1FF5
:102C00000895882321F00E944A1F0C947E1F089586
:102C1000BF92CF92DF92EF92FF920F931F93CF93C9
:102C2000DF9300D000D000D0CDB7DEB725E0FC01A7
:102C3000DE01119601900D922A95E1F7FC01408189
:102C40005181028163817481258122952F706115E4
:102C5000710509F403C35F3F19F44F3F09F4FEC245
:102C60006C01862F7D836C83602F782F8D812E835E
:102C70000E94891E182FB92E0E94881E0E94781D5E
:102C8000EB2DE295EF70F0E0E05AFF4F2E810C94AF
:102C900061298B2D807F9B2D9F70F92E882319F041
:102CA000F29490EFF922002349F0FF2009F483C247
:102CB0008F2D0E94571F0E947E1F7DC2812F0E9470
:102CC0009015FF2009F4CAC28F2D0E945D1F269621
:102CD0000FB6F894DEBF0FBECDBFDF91CF911F912D
:102CE0000F91FF90EF90DF90CF90BF900C947E1FDC
:102CF0008B2D807F9B2D9F70F92E803219F0F294DE
:102D000080EFF822112319F0113009F12AC00023B5
:102D1000B1F08F2D222351F1213041F526960FB6C7
:102D2000F894DEBF0FBECDBFDF91CF911F910F9101
:102D3000FF90EF90DF90CF90BF900C94671F2223FD
:102D400019F0213009F48AC20E946A1F2DC00023A5
:102D5000F1F0263008F082C20E94411F8F2129F035
:102D600023C00023F9F0211116C08F2D26960FB62F
:102D7000F894DEBF0FBECDBFDF91CF911F910F91B1
:102D8000FF90EF90DF90CF90BF900C94FA15253014
:102D900008F064C209C0F601858180FF0CC28F7003
:102DA0008583E3CF21111CC28F2D83C12B2D269546
:102DB0002695237030E02115310521F021303105B1
:102DC000D1F04CC2002321F0812F9B2D937002C0C3
:102DD00080E090E026960FB6F894DEBF0FBECDBF20
:102DE000DF91CF911F910F91FF90EF90DF90CF90E7
:102DF000BF900C940413002321F0812F9B2D93701E
:102E000002C080E090E026960FB6F894DEBF0FBEB9
:102E1000CDBFDF91CF911F910F91FF90EF90DF9089
:102E2000CF90BF900C943213812F002319F00E9491
:102E3000252202C00E948D2226960FB6F894DEBF8E
:102E40000FBECDBFDF91CF911F910F91FF90EF90FB
:102E5000DF90CF90BF900C9412238B2D837009F0DC
:102E60007BC00111FBC1812F829586958770880FE9
:102E7000880F912F9F70C92ED12CE12CF12C082E98
:102E800004C0CC0CDD1CEE1CFF1C0A94D2F714FF0E
:102E900012C04FE050E060E070E004C0440F551FE6
:102EA000661F771F8A95D2F7CB01BA01609570959E
:102EB0008095909503C060E070E0CB012B2D2695A6
:102EC00026952370422F50E042305105D9F043300F
:102ED000510569F16C297D298E299F2941305105C1
:102EE00051F126960FB6F894DEBF0FBECDBFDF912D
:102EF000CF911F910F91FF90EF90DF90CF90BF90F7
:102F00000C949D1D6C297D298E299F2926960FB62C
:102F1000F894DEBF0FBECDBFDF91CF911F910F910F
:102F2000FF90EF90DF90CF90BF900C94B71D0E9460
:102F30009D1DC701B60126960FB6F894DEBF0FBEE1
:102F4000CDBFDF91CF911F910F91FF90EF90DF9058
:102F5000CF90BF900C94831D002319F08B2D8170AE
:102F600001C08695882309F479C1812F82958695C1
:102F70008770880F880F912F9F70C92ED12CE12C5C
:102F8000F12C082E04C0CC0CDD1CEE1CFF1C0A9496
:102F9000D2F714FF12C04FE050E060E070E004C0D0
:102FA000440F551F661F771F8A95D2F7CB01BA01D0
:102FB000609570958095909503C060E070E0CB01BE
:102FC0002B2D269526952370422F50E04230510537
:102FD000D9F04330510569F16C297D298E299F294B
:102FE0004130510551F126960FB6F894DEBF0FBE61
:102FF000CDBFDF91CF911F910F91FF90EF90DF90A8
:10300000CF90BF900C94641E6C297D298E299F2936
:1030100026960FB6F894DEBF0FBECDBFDF91CF91DD
:103020001F910F91FF90EF90DF90CF90BF900C9485
:10303000761E0E94641EC701B60126960FB6F8944C
:10304000DEBF0FBECDBFDF91CF911F910F91FF90DB
:10305000EF90DF90CF90BF900C94521E103FD1F1B3
:1030600028F480E4810F803250F0A0C0123F09F4B0
:1030700062C008F44BC0133F09F472C097C0F12F2F
:10308000F071FF2E8B2D8F71002351F00E94EB1DEC
:10309000812FFF2019F08295807F68CE8F7066CED9
:1030A0000E940C1E812FFF2019F08295807F01C0A5
:1030B0008F7026960FB6F894DEBF0FBECDBFDF919E
:1030C000CF911F910F91FF90EF90DF90CF90BF9025
:1030D0000C9401160023B1F0253008F0BFC08B2DF1
:1030E0008F7126960FB6F894DEBF0FBECDBFDF916D
:1030F000CF911F910F91FF90EF90DF90CF90BF90F5
:103100000C94311E263008F0A9C0E9CF0023A9F0A5
:103110008B2D8F7126960FB6F894DEBF0FBECDBFF4
:10312000DF91CF911F910F91FF90EF90DF90CF90A3
:10313000BF900C94EB1D002359F38B2D8F712696B5
:103140000FB6F894DEBF0FBECDBFDF91CF911F91B8
:103150000F91FF90EF90DF90CF90BF900C940C1EDA
:10316000002399F08B2D8F7126960FB6F894DEBF51
:103170000FBECDBFDF91CF911F910F91FF90EF90C8
:10318000DF90CF90BF900C94D61D26960FB6F89482
:10319000DEBF0FBECDBFDF91CF911F910F91FF908A
:1031A000EF90DF90CF90BF900C94D11D0023A9F039
:1031B000222309F4ADCF812F26960FB6F894DEBFF7
:1031C0000FBECDBFDF91CF911F910F91FF90EF9078
:1031D000DF90CF90BF900C94A214222309F4ADCFBE
:1031E000812F26960FB6F894DEBF0FBECDBFDF91BC
:1031F000CF911F910F91FF90EF90DF90CF90BF90F4
:103200000C9490154B2D4F70612FC6010E94CF205A
:1032100026960FB6F894DEBF0FBECDBFDF91CF91DB
:103220001F910F91FF90EF90DF90CF90BF900C9483
:10323000D11C4B2D4F70612FC60126960FB6F89406
:10324000DEBF0FBECDBFDF91CF911F910F91FF90D9
:10325000EF90DF90CF90BF900C94D22026960FB6BF
:10326000F894DEBF0FBECDBFDF91CF911F910F91BC
:10327000FF90EF90DF90CF90BF9008950E94641F61
:103280000E94331F0E947E1F0E9444240E9412232A
:1032900080E090E00E94041380E090E00C943213F0
:1032A0000E94541F0C943E19CF93DF9300D000D09E
:1032B0001F92CDB7DEB7942F4983252F5A836B8396
:1032C0007C838D834C815D81452B39F12F3F11F437
:1032D0009F3F19F149815A816B817C818D810E94C8
:1032E000891E292F22952F7030E02C30310504F5EE
:1032F0002A3031055CF4225031092230310568F45E
:10330000853A80F4843090F4823080F0883E38F43E
:10331000803E60F48450813A48F080E014C0803FE1
:10332000E1F704C090E2980F983080F781E00BC07D
:103330002C30310521F493FB882780F904C02F300D
:103340003105C9F3EACF0F900F900F900F900F90B7
:10335000DF91CF910895CF93DF9300D000D01F92DB
:10336000CDB7DEB70F900F900F900F900F90DF91B9
:10337000CF910895CF93DF9300D000D000D0CDB788
:10338000DEB726960FB6F894DEBF0FBECDBFDF9135
:10339000CF9108951F93CF93DF93C091830216E0DE
:1033A00080918402C81799F0D0E01C9FF0011D9F06
:1033B000F00D1124EB57FD4F4081518162817381E3
:1033C000848195810E94BA192196C770E9CFDF9157
:1033D000CF911F9108954091B5025091B60260912E
:1033E000B7027091B8028091B9029091BA020C9420
:1033F000BA198091BA0282958F7009F054C08091F9
:10340000B702882309F44FC080918302A0918402FF
:103410006091B5027091B6024091B8025091B90224
:10342000B6E08A1709F43FC090E041155105C1F19B
:103430007F3F11F46F3FA1F1B89FF001B99FF00DEC
:103440001124EB57FD4F218172132AC02081621392
:1034500027C02281211124C02381348124173507FC
:1034600010F421503109241B350B283C3105C0F4E0
:103470002091BA022F7020612093BA0226E0289F83
:10348000F001299FF00D1124E657FD4F80818F70C8
:103490008061808385EB92E00E9408160C94CA1923
:1034A00001968770BECF0895BF92CF92DF92EF92C0
:1034B000FF920F931F93CF93DF93CDB7DEB7619742
:1034C0000FB6F894DEBF0FBECDBF7C0185E0F701DB
:1034D000DE011D9601900D928A95E1F7D7014C917E
:1034E00011965C9111971296DC90129713960D919C
:1034F0001C9114973091B5026091B6028091B80288
:103500009091B902009709F477C16F3F19F43F3FDA
:1035100009F472C1B090B702BB2009F4C5C0209174
:10352000BA020817190728F0F801E81BF90BCF01B8
:1035300004C080959095800F911FCC24C394883C43
:10354000910580F0C12C207F09F0CCC0702F198B21
:10355000088B6D2D89890E94AB1985EB92E00E9442
:103560000816B6C0822F807F09F047C0651314C0CB
:10357000341312C0D11010C02F7020612093BA02F2
:103580000E94EB1985EB92E00E9408168091BA0226
:10359000D70115968C932FC00115110519F15F3FC6
:1035A00011F44F3FF9F0CD2CD1101CC08091830253
:1035B0002091840236E0821709F45CC090E0389FC5
:1035C000F001399FF00D1124EB57FD4F6181561327
:1035D00006C06081461303C06281611103C0019679
:1035E0008770E9CFCD2CDD2009F426C18091BA0285
:1035F00081608093BA02C12C1FC1651308C03413C7
:1036000006C0D11004C08091BA02D701C9C04D874D
:103610005E87DF86702F198B088B6D2D89890E943C
:1036200054198823E9F1DD20D9F12091BA02822FC3
:1036300082958F7090E0029774F08091B50290911E
:10364000B60298878F8319861B870A872C87CE013D
:1036500007960E94081686E0F701A5EBB2E00190FC
:103660000D928A95E1F70E94F9190E94EB19CC247A
:10367000C394E2C0702F198B088B60E089890E9487
:10368000891E292F22952F7030E0223031050CF051
:10369000C7C09F7009F0C1C0805E883008F4CCC0FC
:1036A000C7010E940816E3CF0817190708F456C08F
:1036B000F801E81BF90BCF01883C910508F453C0D1
:1036C000C12C702F198B088B6D2D89890E94AB1925
:1036D000E5EBF2E086E0DF011D928A95E9F70E94B2
:1036E000EB19AAC0651314C0341312C0D11010C056
:1036F0008091BA02F7018583C7010E94081686E00F
:10370000E5EBF2E0DF011D928A95E9F7CB2C94C03E
:103710004D875E87DF86702F198B088B6D2D898909
:103720000E945419882309F4BBCFDD2009F4B8CFD7
:103730002091BA02822F82958F7090E002970CF44C
:103740008ACF8091B5029091B6029A8389831B82B9
:103750001D830C832E83CE0101967BCF809590959F
:10376000800F911FA9CFCD2CDD2009F499CF6513CF
:103770002EC034132CC02091BA0220FD1FC0822F0E
:1037800082958F70D9F0D70115962C9315978F30AD
:1037900049F08F5F982F9295907F822F8F70892BA1
:1037A00015968C93C7010E94081686E0F701A5EBD9
:1037B000B2E001900D928A95E1F791CF86E0F70192
:1037C000A5EBB2E001900D928A95E1F735C04D87E7
:1037D0005E87DF86702F198B088B6D2D89890E947B
:1037E0005419811138CF8091BA0281608093BA0256
:1037F000C7010E94081620C0DD2009F451CF4D8773
:103800005E87DF86702F198B088B6D2D89890E944A
:103810005419882309F444CF1ECF81113DCF0CC029
:10382000243031050CF03CCF9F7009F435CFF701FF
:103830009581907F09F030CF8C2D61960FB6F8946A
:10384000DEBF0FBECDBFDF91CF911F910F91FF90D3
:10385000EF90DF90CF90BF9008951F93CF93DF93A9
:10386000CDB7DEB72C970FB6F894DEBF0FBECDBF35
:103870004F83588769877A878B879C87CE01079605
:103880000E94541A882369F08F8198852A853B8588
:10389000232BF1F19F3F09F063C08F3F09F060C017
:1038A00037C086E0FE013796DE01119601900D9239
:1038B0008A95E1F76F817885EA85FB85309741F13C
:1038C0007F3F11F46F3F21F12091840230E0C90164
:1038D0000196877099274091830250E084179507DD
:1038E00009F447C069837A83FD83EC8396E0929F55
:1038F000D001939FB00D1124AB57BD4FFE013196FF
:1039000001900D929A95E1F7809384020E94CA1962
:1039100016E080918302909184028917C1F1189F6B
:10392000C00111248B579D4F0E94541A882379F1AE
:10393000E09183021E9FF0011124EB57FD4F40815F
:10394000518162817381848195810E94BA1980912D
:10395000830290E001968770992780938302D9CFE4
:103960004F81588569857A858B859C850E94BA1917
:10397000CFCF0E9450191092840210928302E5EB7F
:10398000F2E086E0DF011D928A95E9F7C1CF2C961F
:103990000FB6F894DEBF0FBECDBFDF91CF911F9160
:1039A0000895DF92EF92FF920F931F93CF93DF93CF
:1039B000FC01892B09F48AC0E12CF12CDD24D3947D
:1039C000EF0121968491853709F461C058F484375A
:1039D00008F04EC0843008F06AC08130D1F08230E7
:1039E00071F174C0883709F45DC050F4863709F46A
:1039F00055C0873709F06AC08E2D0E94511F54C0F0
:103A00009CE7980F903708F061C08F770E9490155F
:103A100050C08F010E5F1F4FFE01849190E2980FFE
:103A2000983050F48770FD2D01C0FF0F8A95EAF79A
:103A30008F2F0E94571F14C00E94A21413C08F0121
:103A40000E5F1F4FFE01C49180E28C0F883060F43E
:103A5000C7708D2D01C0880FCA95EAF70E945D1FBF
:103A60000E947E1FE80125C08C2F0E949015FACF7E
:103A70009F012E5F3F4FFE01C491CC2369F08FE977
:103A80009FE00197F1F700C00000C150F6CF9F0101
:103A90002E5F3F4FFE01F490E9010BC00E94411FD1
:103AA000E82E07C00E94541F0E947E1F02C00E9481
:103AB000A2148F2D882341F0EFE9FFE03197F1F751
:103AC00000C000008150F6CFFE017ACFDF91CF9188
:103AD0001F910F91FF90EF90DF90089560933B034B
:103AE00070933C0380933D0390933E030C94D01F4E
:103AF000089560933F037093400380934103909334
:103B000042030C94CF1F0F931F9300913F0310911A
:103B100040032091410330914203602B712B822B93
:103B2000932B60933F0370934003809341039093E2
:103B300042031F910F910C94CF1F0F931F9300917D
:103B40003F031091400320914103309142036023D1
:103B500071238223932360933F03709340038093E8
:103B60004103909342031F910F910C94CF1F0F9329
:103B70001F9300913F031091400320914103309126
:103B80004203602771278227932760933F03709336
:103B9000400380934103909342031F910F910C9433
:103BA000CF1F60E070E0CB010C946E1D0F931F934C
:103BB00041E050E060E070E08A019B0104C0000F2A
:103BC000111F221F331F8A95D2F7C901B8011F9117
:103BD0000F910C946E1D0F931F9341E050E060E035
:103BE00070E004C0440F551F661F771F8A95D2F7F7
:103BF00080913B0390913C03A0913D03B0913E0323
:103C00008A019B01082B192B2A2B3B2BC901B801D8
:103C10001F910F910C946E1D0F931F9341E050E084
:103C200060E070E004C0440F551F661F771F8A953F
:103C3000D2F7409550956095709580913B03909197
:103C40003C03A0913D03B0913E038A019B010823F0
:103C500019232A233B23C901B8011F910F910C940A
:103C60006E1D0F931F9341E050E060E070E004C0D0
:103C7000440F551F661F771F8A95D2F780913B032B
:103C800090913C03A0913D03B0913E038A019B01BA
:103C9000082719272A273B27C901B8011F910F912F
:103CA0000C946E1D0F931F9300913B0310913C03E6
:103CB00020913D0330913E03602B712B822B932B7F
:103CC0001F910F910C946E1D0F931F9300913B0356
:103CD00010913C0320913D0330913E0360237123FA
:103CE000822393231F910F910C946E1D0F931F93AA
:103CF00000913B0310913C0320913D0330913E0322
:103D000060277127822793271F910F910C946E1DB6
:103D100008958F929F92AF92BF92DF92EF92FF929F
:103D20000F931F93CF93DF9300D000D01F92CDB796
:103D3000DEB76B837C838D838A018C819D81892B87
:103D400021F01F3F29F44F3F19F480E090E04CC070
:103D50008B818823C9F180903F0390904003A0900D
:103D60004103B090420380913B0390913C03A091AA
:103D70003D03B0913E03882A992AAA2ABB2A8FE1E3
:103D8000E82EF12CD501C4010E2C04C0B695A795E0
:103D9000979587950A94D2F780FF07C0DE2CB8016B
:103DA0008E2D0E94EE20019729F481E0E81AF10897
:103DB00048F7D12C88E0189FF0011124E00FF11D85
:103DC000E554FD4FD08209C088E0189FF00111240E
:103DD000E00FF11DE554FD4FD08009831A836981FE
:103DE0007A818D2D0E94EE200F900F900F900F90F2
:103DF0000F90DF91CF911F910F91FF90EF90DF9087
:103E0000BF90AF909F908F900895209112013091B4
:103E10001301F90132969FEF40E05191581789F054
:103E20009F3F19F4511101C0942F4F5F4630A9F7FD
:103E30009F3F39F0F901E90FF11D97FDFA95828353
:103E4000089508952091120130911301F9013296DD
:103E5000285F3F4F9081981301C010823196E2177E
:103E6000F307C1F7089581E090E0E0911201F0912D
:103E70001301E80FF91F1082019688309105A9F708
:103E8000089580914D03089590914D03892B80935F
:103E90004D030895809590914D03892380934D03A0
:103EA000089580934D03089510924D0308959091C5
:103EB0004C03892B80934C030895809590914C037B
:103EC000892380934C03089510924C0308958093A6
:103ED0004303089510924303089580911201909135
:103EE0001301FC0131969C01285F3F4F80E09191C6
:103EF00091118F5FE217F307D1F70895E091120156
:103F0000F091130180914D038083E0911201F091B3
:103F10001301908180914C03892B8083809143030E
:103F2000882361F0E0911201F09113019081892BB7
:103F300080830E946D1F81111092430380911201B2
:103F4000909113010C94B012909341018093400121
:103F500008958295982F9C7C392F36953695282F79
:103F6000237344E0249FC0011124932F982B292F01
:103F70002A7A2695892F8575880F822B08950895B2
:103F8000CF93DF9300D000D01F92CDB7DEB70F9054
:103F90000F900F900F900F90DF91CF91089508959B
:103FA00008950C940D1480916303843021F11092D4
:103FB0004F0320E488E190E00FB6F894A895809331
:103FC00060000FBE2093600083B7817F846083BF51
:103FD00083B7816083BF7894889583B78E7F83BFD2
:103FE0000FB6F894A8958091600088618093600076
:103FF000109260000FBE0895CF930E9460140E943B
:1040000092080E946114C0E08C2F0E9480098111E7
:1040100004C0CF5FC031C1F701C081E0CF910895E6
:104020000E940F140C9450191F920F920FB60F920A
:1040300011248F939F93AF93BF9380914F0381116E
:1040400013C08091500390915103A0915203B091FD
:1040500053034196A11DB11D8093500390935103CA
:10406000A0935203B0935303BF91AF919F918F914F
:104070000F900FBE0F901F90189582E084BD93E0C3
:1040800095BD9AEF97BD80936E0008952FB7F89471
:104090008091500390915103A0915203B09153032A
:1040A0002FBF08952FB7F89460915003709151037A
:1040B00080915203909153032FBF0895CF92DF92C6
:1040C000EF92FF920F931F932FB7F89440915003F4
:1040D0005091510360915203709153032FBF6A01B5
:1040E0007B01EE24FF248C0120E030E0C016D106D5
:1040F000E206F30610F4415051099A01281B390BCE
:10410000C9011F910F91FF90EF90DF90CF9008951C
:104110001F920F920FB60F9211248F939F93AF931C
:10412000BF938091500390915103A0915203B0919D
:1041300053030196A11DB11D809350039093510329
:10414000A0935203B0935303BF91AF919F918F916E
:104150000F900FBE0F901F9018950E94BD0FF894FE
:104160002FEF87EA91E6215080409040E1F700C0B0
:10417000000087E090EBDC0180936C0390936D036B
:10418000A0936E03B0936F039CE088E10FB6F894A0
:10419000A895809360000FBE90936000FFCF80E0F1
:1041A00090E008950895E72FF0E090E1899FE00DF9
:1041B000F11D112483E0EE0FFF1F8A95E1F7E60F52
:1041C000F11DE851FF4F84910895E82FF0E0EE0FC4
:1041D000FF1FE05AF0408591949108950E94D320EA
:1041E00090E4980F903218F40E94E52008958D3BDA
:1041F00050F4883AA0F5853A28F5843000F58130EE
:1042000009F49DC099C0883E98F4803EC0F48F3B6D
:1042100009F092C00E9450192FEF80E792E02150E0
:1042200080409040E1F700C000000E94AD2084C0B3
:10423000803F08F481C0282F30E0306582C0282FED
:1042400030E07FC0853A29F0863A31F023E830E447
:1042500078C021E830E475C022E830E472C0883AC2
:1042600061F1893A69F18A3A71F18B3A79F18C3AC4
:1042700081F18D3A89F18E3A91F18F3A99F1813B32
:10428000A1F1803BA9F1823BB1F1833BB9F1843BC1
:10429000C1F1853BC9F1863BD1F1873BD9F1883B20
:1042A000E1F1893BE9F18A3BF1F18B3BF9F18C3B80
:1042B00009F43FC020E034E444C022EE34E441C0BD
:1042C00029EE34E43EC02AEE34E43BC025EB34E46E
:1042D00038C026EB34E435C023EB34E432C024EBA1
:1042E00034E42FC027EB34E42CC02CEC34E429C098
:1042F0002DEC34E426C023E835E423C02AE835E475
:1043000020C022E935E41DC024E935E41AC021E2C9
:1043100036E417C023E236E414C024E236E411C0C8
:1043200025E236E40EC026E236E40BC027E236E48E
:1043300008C02AE236E405C020E030E002C021E0F7
:1043400030E0C90108958091560380FF0BC0609151
:10435000170185E0689FB0011124759567957595E3
:1043600067952BC081FF09C06091170185E0689FA8
:10437000B00111247595679520C082FF07C0609138
:10438000170185E0689FB001112417C09091570371
:104390009923D1F060911601961788F720911701A3
:1043A00085E0289F90011124929FA001939F500DBA
:1043B000112470E0CA010E944D296038710540F453
:1043C0006115710539F002C065E070E0862F08952F
:1043D0008FE7089581E008958091560380FF08C01B
:1043E0006091150170E0759567957595679521C089
:1043F00081FF06C06091150170E07595679519C041
:1044000082FF04C06091150170E010C090915703C5
:104410009923C1F0609114019617A0F780911501BE
:10442000899FC001112470E00E944D2960387105F8
:1044300028F46115710521F0862F08958FE70895FE
:1044400081E0089561E070E0F4CF803F21F40E94A4
:10445000A321819504C0813F29F40E94A321809368
:104460005A030895823F21F40E94A321819504C03C
:10447000833F29F40E94A321809359030895893F23
:1044800019F40E94EC2105C08A3F31F40E94EC210E
:10449000819580935B0308958B3F21F40E94EC216A
:1044A000819504C08C3F29F40E94EC2180935C0329
:1044B0000895843F21F480915803816017C0853F9F
:1044C00021F480915803826011C0863F21F48091CD
:1044D000580384600BC0873F21F4809158038860A3
:1044E00005C0883F31F48091580380618093580360
:1044F00008958D3F21F48091560381600BC08E3F5B
:1045000021F480915603826005C08F3F29F4809189
:1045100056038460809356030895803F39F4809158
:104520005A0387FF6CC010925A0369C0813F29F477
:1045300080915A031816BCF362C090915903823FD0
:1045400029F497FF5CC01092590359C0833F19F4B6
:104550001916CCF354C0893F41F480915B031816BF
:104560000CF04DC010925B034AC08A3F29F4809141
:104570005B0387FF44C0F6CF8B3F39F480915C0327
:1045800087FF3DC010925C033AC08C3F29F48091B4
:104590005C031816BCF333C0843F21F480915803A8
:1045A0008E7F17C0853F21F4809158038D7F11C005
:1045B000863F21F4809158038B7F0BC0873F21F405
:1045C00080915803877F05C0883F31F4809158035C
:1045D0008F7E8093580313C08D3F21F48091560342
:1045E0008E7F0BC08E3F21F4809156038D7F05C0D6
:1045F0008F3F29F4809156038B7F809356038091DF
:10460000590381110EC080915A0381110AC0809113
:104610005B03811106C080915C03811102C010927E
:104620005703089580914E0383FF7EC08DE795E088
:104630000E940206809158031F928F9388E795E0AD
:104640009F938F930E949B0686E795E00E94020647
:1046500080915903282F082E000C330B3F938F9322
:1046600083E795E09F938F930E949B0681E795E0F7
:104670000E94020680915A03282F082E000C330B4B
:104680003F938F938EE695E09F938F930E949B06B6
:104690008CE695E00E94020680915B03282F082E8D
:1046A000000C330B3F938F9389E695E09F938F9394
:1046B0000E949B0687E695E00E94020680915C03BB
:1046C000282F082E000C330B3F938F9384E695E040
:1046D0009F938F930E949B0681E695E00E940206BD
:1046E000809157031F928F938EE595E09F938F9350
:1046F0000E949B068CE595E00E940206809156037D
:104700001F928F9389E595E09F938F930E949B065C
:1047100086E595E00E9402068DB79EB74C960FB6CF
:10472000F8949EBF0FBE8DBF88E593E00E94F912FA
:104730000E944620909355038093540308951F933D
:10474000CF93DF9380915403909155030E945E2094
:10475000AC0190915703992321F02091180130E08A
:1047600006C0209119018AE0289F90011124421768
:10477000530708F485C080915903C0915A03D09122
:104780005B0310915C03811107C0C11175C0D11189
:1047900073C0111171C074C09F3F19F09F5F909357
:1047A0005703181624F40E94A32180935903809183
:1047B000590387FF05C00E94A32181958093590367
:1047C0001C1624F40E94A32180935A0380915A035B
:1047D00087FF05C00E94A321819580935A036091B1
:1047E0005903662331F1C0915A03CC2311F1062EEF
:1047F000000C770B880B990B0E94542823E333E3BA
:1048000043E35FE30E94B8280E941C286093590389
:104810006C2FCC0F770B880B990B0E94542823E345
:1048200033E343E35FE30E94B8280E941C286093AF
:104830005A031D1624F40E94EC2180935B0380919F
:104840005B0387FF05C00E94EC21819580935B0389
:10485000111624F40E94EC2180935C0380915C0388
:1048600087FF05C00E94EC21819580935C03DF9156
:10487000CF911F910C9412239F3F09F08FCF97CFB8
:10488000DF91CF911F910895E8E5F3E085E0DF0126
:104890001D928A95E9F710925703109256030895D6
:1048A00080EA97E00E9402061F9281E08F931F9298
:1048B00085E08F9382E597E09F938F930E949B06FC
:1048C0000F900F900F900F900F900F9008958330DE
:1048D000E9F128F4813061F0823009F108958530E2
:1048E00009F462C008F449C0863009F474C0089520
:1048F00080911901262F30E0280F311D2F3F3105FF
:1049000024F4680F6093190103C08FEF809319019D
:10491000809119011F928F938BE896E072C080916D
:104920001801262F30E0280F311D2F3F310524F4C8
:10493000680F6093180103C08FEF80931801809176
:1049400018011F928F9389E796E05BC08091170151
:10495000262F30E0280F311D2F3F310524F4680F3A
:104960006093170103C08FEF8093170180911701A7
:104970001F928F9386E696E044C080911601262F01
:1049800030E0280F311D2F3F310524F4680F60936C
:10499000160103C08FEF80931601809116011F92BC
:1049A0008F9381E596E02DC080911501262F30E090
:1049B000280F311D2F3F310524F4680F6093150136
:1049C00003C08FEF80931501809115011F928F9383
:1049D00088E396E016C080911401262F30E0280F5E
:1049E000311D2F3F310524F4680F6093140103C07B
:1049F0008FEF80931401809114011F928F938DE1AA
:104A000096E09F938F930E949B060F900F900F90BC
:104A10000F900895833081F128F4813059F082306D
:104A2000D1F00895853009F449C0B8F1863009F411
:104A300056C0089580911901681720F4861B809351
:104A4000190102C010921901809119011F928F93D0
:104A50008EE096E054C080911801681720F4861B00
:104A60008093180102C010921801809118011F92C2
:104A70008F938CEF95E043C080911701681720F465
:104A8000861B8093170102C01092170180911701B5
:104A90001F928F9389EE95E032C0809116016817BE
:104AA00020F4861B8093160102C01092160180919B
:104AB00016011F928F9384ED95E021C0809115011E
:104AC000681720F4861B8093150102C0109215010F
:104AD000809115011F928F938BEB95E010C0809110
:104AE0001401681720F4861B8093140102C01092F1
:104AF0001401809114011F928F9380EA95E09F9397
:104B00008F930E949B060F900F900F900F90089527
:104B1000CF93C82F1F928F9385EA98E09F938F932E
:104B20000E949B0681E090E0A0E0B0E0BC01CD01D6
:104B300004C0660F771F881F991FCA95D2F70E947D
:104B4000791D0F900F900F900F90CF910C945019EA
:104B5000CF93873288F58E3108F00BC18E3009F47F
:104B600087C0D8F4873009F460C08B3009F44FC097
:104B7000863009F002C180914E03817F8E7F809341
:104B80004E038AEA98E00E94020685E59BE00E94B7
:104B9000020681E080935E0346C0863109F4B0C00E
:104BA00020F4803109F47AC0E8C0893109F491C059
:104BB0008B3109F449C0E1C0883349F150F489329E
:104BC00009F4D5C0853309F4D2C0873209F0D5C0C5
:104BD000CEC0833409F4CBC028F48A3308F4CDC0A6
:104BE0008953C8C0883409F0C8C00E94501984E4B1
:104BF0009BE00E9402062FEF83ED90E3215080405E
:104C00009040E1F700C000000E94AD200CC081ED93
:104C100098E041C08BE29BE00E94020680914E0327
:104C2000816080934E03C1E0ADC080914E03C82FD8
:104C3000C17080FFEFCF87E39BE00E940206809166
:104C40004E03817F8E7F3FC090914E0391FBCC2716
:104C5000C0F981E0C827892FC0FB81F980934E03FA
:104C6000CC2319F08EE19BE029C080E19BE013C0CA
:104C700090914E0392FBCC27C0F981E0C827892F81
:104C8000C0FB82F980934E03CC2319F081E09BE0B6
:104C900015C081EF9AE00E940206C5CF90914E03A5
:104CA00093FBCC27C0F981E0C827892FC0FB83F98B
:104CB00080934E03CC2351F085EE9AE00E940206C9
:104CC00080914E03816080934E035CC088ED9AE032
:104CD000E2CF89EC9AE00E94020686EA9AE00E94FE
:104CE000020681E69AE00E94020683E39AE00E94AF
:104CF00002068DEF99E00E9402068FEC99E0CBCF7F
:104D000081EC99E00E9402060E94A4121F928F93E8
:104D100087EA99E09F938F930E949B0680911101EF
:104D20001F928F9380E999E09F938F930E949B0637
:104D300080916B021F928F938DE799E09F938F93E1
:104D40000E949B060E9452209F938F937F936F93A4
:104D500086E699E09F938F930E949B068DB79EB73E
:104D600042960FB6F8949EBF0FBE8DBF5CCF80E019
:104D700001C08D510E94882556CF84E699E00E949B
:104D80000206C0E08C2FCF91089580E0089580E066
:104D90000895CF93C82F80915E03813069F020F091
:104DA000823009F449C040C167E08FE00E941114CD
:104DB000882309F43FC106C067E08FE00E94111408
:104DC000882361F08C2F0E94C526811104C08C2F8E
:104DD0000E94A8252FC081E090E02CC08C2F0E945B
:104DE000C726811126C0C431E1F070F4CB3081F0C8
:104DF000C031D1F40E9450248DE998E00E9402064F
:104E000082E080935E0315C0C93259F0C83361F463
:104E10008AEA98E00E94020681EA98E00E9402066F
:104E200008C010925E0304C18BE998E00E9402065C
:104E3000FFC081E08170FEC0C43228F5CE3108F099
:104E4000C1C0CB30A1F1D0F4C73009F0D3C08EE19E
:104E50008093190182E3809318018AE080931701FF
:104E600084E18093160188E08093150188E28093A5
:104E7000140181E497E00E940206BFC0C33149F1EA
:104E8000C431C1F0B7C0CB3409F4A9C028F4C93289
:104E900089F0C83361F0AEC0C13509F49EC0C23597
:104EA00009F499C0CE3409F0A5C06AE09EC00E9402
:104EB0005024A3C080915D03882319F010925D03F4
:104EC0009CC08EE497E00E94020681E080935E031E
:104ED000B1C088E297E00E94020686E197E00E9456
:104EE0000206809119011F928F9383E197E09F93AF
:104EF0008F930E949B0681E197E00E9402068FEF4C
:104F000096E00E940206809118011F928F938CEF09
:104F100096E09F938F930E949B068AEF96E00E94F3
:104F200002068BEE96E00E940206809117011F9206
:104F30008F9388EE96E09F938F930E949B0686EE58
:104F400096E00E94020685ED96E00E94020680919E
:104F500016011F928F9382ED96E09F938F930E948C
:104F60009B0680ED96E00E9402068BEB96E00E9485
:104F70000206809115011F928F9388EB96E09F9314
:104F80008F930E949B0686EB96E00E9402068FE9B3
:104F900096E00E940206809114011F928F938CE983
:104FA00096E09F938F930E949B068AE996E00E9469
:104FB00002068DB79EB748960FB6F8949EBF0FBEF7
:104FC0008DBF1BC0CE51EC2FF0E0EB5CFE4F80811B
:104FD00080935D0312C061E003C061E006C06AE037
:104FE00080915D030E94672408C080915D030E9448
:104FF0000A2503C08FE397E013C080915D038823E7
:1050000069F01F928F9389E397E09F938F930E949B
:105010009B060F900F900F900F9004C086E397E0CF
:105020000E94020681E006C010925E0380E002C08A
:1050300080E000CFCF9108950E9423286894B11199
:105040000C94B22808950E94972888F09F5798F0F2
:10505000B92F9927B751B0F0E1F0660F771F881F7D
:10506000991F1AF0BA95C9F714C0B13091F00E9497
:10507000B128B1E008950C94B128672F782F8827C4
:10508000B85F39F0B93FCCF3869577956795B395BE
:10509000D9F73EF490958095709561957F4F8F4F2D
:1050A0009F4F0895E89409C097FB3EF49095809532
:1050B000709561957F4F8F4F9F4F9923A9F0F92FDE
:1050C00096E9BB279395F695879577956795B7955C
:1050D000F111F8CFFAF4BB0F11F460FF1BC06F5F42
:1050E0007F4F8F4F9F4F16C0882311F096E911C054
:1050F000772321F09EE8872F762F05C0662371F075
:1051000096E8862F70E060E02AF09A95660F771F88
:10511000881FDAF7880F9695879597F9089557FDB8
:105120009058440F551F59F05F3F71F04795880F15
:1051300097FB991F61F09F3F79F0879508951216AC
:1051400013061406551FF2CF4695F1DF08C0161658
:1051500017061806991FF1CF869571056105089409
:105160000895E894BB2766277727CB0197F9089520
:105170000E94CB280C943C290E942E2938F00E94D2
:10518000352920F0952311F00C9425290C942B2916
:1051900011240C94B2280E948F2870F3959FC1F3BC
:1051A000950F50E0551F629FF001729FBB27F00DD5
:1051B000B11D639FAA27F00DB11DAA1F649F66272A
:1051C000B00DA11D661F829F2227B00DA11D621F79
:1051D000739FB00DA11D621F839FA00D611D221F33
:1051E000749F3327A00D611D231F849F600D211D17
:1051F000822F762F6A2F11249F5750409AF0F1F09A
:1052000088234AF0EE0FFF1FBB1F661F771F881F02
:1052100091505040A9F79E3F510580F00C942529EC
:105220000C94B2285F3FE4F3983ED4F386957795CB
:105230006795B795F795E7959F5FC1F7FE2B880FA8
:10524000911D9695879597F9089597F99F6780E83E
:1052500070E060E008959FEF80EC089500240A94C8
:105260001616170618060906089500240A94121641
:105270001306140605060895092E0394000C11F474
:10528000882352F0BB0F40F4BF2B11F460FF04C021
:105290006F5F7F4F8F4F9F4F089597FB072E16F438
:1052A000009407D077FD09D00E94672907FC05D03C
:1052B0003EF4909581959F4F0895709561957F4F2D
:1052C0000895EE0FFF1F0590F491E02D0994AA1B9D
:1052D000BB1B51E107C0AA1FBB1FA617B70710F0E1
:1052E000A61BB70B881F991F5A95A9F78095909513
:0A52F000BC01CD010895F894FFCF32
:1052FA00FFFF62010000FFA30A330B100BDA0AA6B4
:10530A000A0144032808140A321E796573006E6F75
:10531A0000404D3622BE0471043B041904A503BEA5
:10532A0003D703F003010203040506070809000076
:00000001FF
